:100000000C948C090C94A9090C94A9090C94A909C5
:100010000C94A9090C94A9090C94A9090C94111326
:100020000C94A9090C94A9090C94A9090C94202EEC
:100030000C94A9090C94A9090C94A9090C94A90978
:100040000C940E2E0C94A9090C94A9090C94A909DE
:100050000C94A9090C94A9090C94A9090C94A90958
:100060000C94A9090C94A909050A0605060A050AB3
:100070000609060A050A0609060A050A0609060A05
:10008000050A0609060A050A06050A06090A0600FF
:100090000002000002007C02008303C00006200072
:1000A00009208608104610102610081620080E2079
:1000B000FF0720080E2008162010A61010C61020DA
:1000C000E608200009C00006008303007C0200004F
:1000D00002000002000000000002000002007C029A
:1000E000008303C0000620000920A6081066101037
:1000F000E610081620080E20FF0720080E2008161C
:1001000020102610104610208608200009C0000686
:10011000008303007C0200000200000200000000D7
:100120000002000002007C02008303C000062004DD
:100130000A20FD0B10051010011008412008652051
:1001400008FD23086522084122100112100512FF44
:10015000FD0B20040AC00006008307007C0200009B
:1001600002000002000000000002000002007C0209
:10017000008303C0000620040AFFFD0B10051010C9
:10018000011008212008652008FD230865220821A8
:100190002210011210051220FD0B20040AC00006D7
:1001A000008303007C020000020000020000000047
:1001B0000002000002007C02008303C0000620044D
:1001C0000A20FD0B100510100510084520086520B9
:1001D00008FD23086522084522100512100512FFAC
:1001E000FD0B20040AC00006008307007C0200000B
:1001F00002000002000000000002000002007C0279
:10020000008303C0000620040AFFFD0B1005101038
:10021000051008252008652008FD2308652208250B
:100220002210051210051220FD0B20040AC0000642
:10023000008303007C0200000200000200000000B6
:100240000002000002007C02008303C000062008B8
:100250000A20080A10F813100810080820080820BF
:10026000080820080820080920100B10FFFF1320A1
:100270000B0A20090AC00006008303007C0200006C
:1002800002000002000000000002000002007C02E8
:10029000008303C00006200A0A200B0AFFFF131088
:1002A0000B10080A20080820080820080820080861
:1002B0002010081010F81320080A20080AC00006B1
:1002C000008303007C020000020000020000000026
:1002D0000002000002007C02008303C00006200030
:1002E00009208408104510102510081520080D203D
:1002F000FF0520080D2008152010A51010C510209E
:10030000E408200009C00006008303007C0200000E
:1003100002000002000000000002000002007C0257
:10032000008303C0000620000920A40810651010F7
:10033000E510081520080D20FF0520080D200815E0
:1003400020102510104510208408200009C0000648
:10035000008303007C020000020000020000000095
:10036000000000100000100000100000100080FFCE
:100370000300FF0100FF0100FE0000FE00007C0002
:10038000007C0000380000380000100080FF0300EF
:100390001800001400001200FE11000010000010F0
:1003A000000010000000000000000010000010001D
:1003B000001000001000001000001000F8FF3F8047
:1003C000E03FC0C11FC0C11FE0830FE0830FF007F3
:1003D00007F00707F80F02F8FF3F801000401000F9
:1003E0002010001F1000001000001000001000007E
:1003F0000000001000001000001000FE11000012AC
:100400000000140000180080FF0300FF0100FF013E
:1004100000FE0000FE00007C00007C0000380000B0
:10042000380000100080FF030010000010000010D2
:1004300000001000000000FF01020304050607FF92
:10044000FFFFFFFFFFFFFFFFFFFFFFFFFFFFFFFFBC
:10045000FFFFFFFFFFFFFF101112131415161718EF
:10046000191A1B1C1D1E1F20212223242526272884
:10047000292A2B2C2D2E2F30313233343536373874
:10048000393A3B3C3D3E3F40414243444546474864
:10049000494A4B4C4D4E4F50515253545556575854
:1004A000595A5B5C5D5E5F60616263646566676844
:1004B000696A6B6C6D6EFFFFFFFFFFFFFFFFFFFFC1
:1004C000FFFFFFFFFFFFFFFFFFFFFFFFFFFFFFFF3C
:1004D000FFFFFFFFFFFFFFFFFFFFFFFFFFFFFFFF2C
:1004E000FFFFFFFFFFFFFFFFFFFFFFFF05FFFFFF16
:1004F000FFFFFFFFFFFFFFFFFFFFFF08FFFFFFFF03
:10050000FFFFFFFFFFFFFFFFFFFFFFFFFF09FFFFF1
:10051000FFFFFF0AFFFF0BFFFFFFFF0CFFFFFFFFC7
:10052000FFFFFFFFFFFFFFFFFFFFFFFFFF0DFFFFCD
:10053000FFFFFF0EFFFFFF000000000000000000B3
:1005400000000000000000000000000000000000AB
:100550000000000000000000000000820086008E05
:10056000009E00BE00FF03BE009E008E008600823B
:1005700000000000000000000000008200C200E255
:1005800000F200FA00FF03FA00F200E200C200826B
:1005900000000000000000000000008601860186C7
:1005A0000186018601870386018601860186018610
:1005B0000100000000000000007800840002010239
:1005C000010201020102018400480048004800863F
:1005D000010000000000000000000000000000001A
:1005E00000820082008200820082008200C600BA7F
:1005F0000002000200020000000000FE03020002F0
:10060000000200020003000200020002000200FEDD
:100610000300000000000000000000FF01000100D6
:10062000010001000100030001000100010001FFC1
:10063000010000000000004400000000001000382D
:10064000002800480044008400FE0002010201016D
:100650000200000000000044000000000078008458
:10066000000201020102010201020102018400787C
:100670000000000000000044000000000082008232
:100680000082008200820082008200820044003CDE
:100690000000000000000000001C002200220022D8
:1006A000001200120012002200420082008200723A
:1006B0000000000000000000000000240000000016
:1006C000003C00400040007800440042006200DC32
:1006D00000000000000000000000002400000000F6
:1006E000003800440082008200820082004400380A
:1006F00000000000000000000000002400000000D6
:100700000042004200420042004200420062005C9F
:1007100000000000000000000000000000000000D9
:1007200000000000000000000000000000000000C9
:1007300000000000000000000000000000000000B9
:1007400000000000000000000000000000000000A9
:100750000000000000000000001000100010001059
:100760000010001000100010001000000010001019
:100770000000000000000000004400440044004469
:100780000000000000000000000000000000000069
:1007900000000000000000000090009000480048A9
:1007A00000FE0148002400FF012400240012001272
:1007B000000000000000002000F8002C00240024AD
:1007C00000280030006000E000A000A000A4007C31
:1007D0000020000000000000000E021101910051F5
:1007E000004E0020001000C801280224022202C18D
:1007F00001000000000000000038004400440064D4
:100800000038000C001202310221014101C200FC3B
:100810000100000000000000001000100010001097
:1008200000000000000000000000000000000000C8
:100830000000000000000000008001600030001097
:100840000008000800080008000800080010003038
:100850000060008001000000000600180030002049
:1008600000400040004000400040004000200030B8
:1008700000180006000000000010001000D6006CF8
:1008800000280038002800000000000000000000E0
:100890000000000000000000000000000000000058
:1008A000001000100010001000FF011000100010D8
:1008B0000000000000000000000000000000000038
:1008C00000000000000000000000000000180018F8
:1008D00000100010000800000000000000000000F0
:1008E00000000000000000FC00000000000000000C
:1008F00000000000000000000000000000000000F8
:1009000000000000000000000000000000180018B7
:100910000000000000000000000001800080004096
:100920000040002000200010001000080008000413
:10093000000400020000000000380044004400826F
:10094000008200820082008200820044004400385D
:1009500000000000000000000010001E0010001049
:10096000001000100010001000100010001000FE19
:100970000000000000000000003E00420040004077
:100980000040002000200010000800040002007E4B
:100990000000000000000000003C0040004000405B
:1009A0000040003800400040004000400040003C53
:1009B0000000000000000000002000300028002897
:1009C000002400220022002100FF0020002000203F
:1009D0000000000000000000007C0004000400048F
:1009E000001C002000400040004000400020001C8F
:1009F0000000000000000000007800040004000275
:100A0000003A0046008200820082008200440038E2
:100A1000000000000000000000FE008000400020F8
:100A20000020001000100008000800080004000466
:100A30000000000000000000007C008200820082B4
:100A40000064001800640042008200820042003C02
:100A50000000000000000000003800440082008216
:100A60000082008200C400B8008000400040003CCA
:100A70000000000000000000000000000000000076
:100A80000018001800000000000000000018001806
:100A90000000000000000000000000000000000056
:100AA00000180018000000000000000000180018E6
:100AB000001000100008000000000000000000000E
:100AC000000001C00030000C000C003000C000002D
:100AD0000100000000000000000000000000000015
:100AE0000000000000FE0100000000FE0100000008
:100AF00000000000000000000000000000000000F6
:100B00000002000C003000C000C00030000C0002E9
:100B10000000000000000000007E00C20082008093
:100B20000040002000100008000800000008000835
:100B300000000000000000000078008400E2009344
:100B40000089008900C900C900E900B20346007CA1
:100B5000000000000000000000000000001000384D
:100B6000002800480044008400FE00020102010148
:100B7000020000000000000000000000007E008273
:100B800000820042003E0042008200820082007E1D
:100B900000000000000000000000000000F80086D7
:100BA000000200010001000100010002000600F83F
:100BB000000000000000000000000000003E0042B5
:100BC0000082008200820082008200820042003E99
:100BD00000000000000000000000000000FE000215
:100BE000000200020002007E00020002000200FE7D
:100BF00000000000000000000000000000FE0002F5
:100C0000000200020002007E000200020002000258
:100C100000000000000000000000000000F0010CD7
:100C200001040002000200C201020104010C01F0F3
:100C300001000000000000000000000000820082AF
:100C400000820082008200FE008200820082008218
:100C500000000000000000000000000000FE001086
:100C6000001000100010001000100010001000FE16
:100C700000000000000000000000000000780040BC
:100C80000040004000400040004000400040003C68
:100C90000000000000000000000000000082004290
:100CA00000220012000E000A001200620082000200
:100CB000010000000000000000000000000200022F
:100CC000000200020002000200020002000200FE18
:100CD00000000000000000000000000000C300C38E
:100CE00000C700A500A500AD009900990081008112
:100CF00000000000000000000000000000820086EC
:100D0000008A008A0092009200A200A200C2008223
:100D100000000000000000000000000000780084D7
:100D200000020102010201020102010201840078B5
:100D3000000000000000000000000000007E0082B3
:100D4000008200820042003E000200020002000217
:100D50000000000000000000000000000078008497
:100D60000002010201020102010201020184007875
:100D7000004000800100000000000000003E004232
:100D8000004200420022001E0012002200420082A7
:100D900000000000000000000000000000FC0082D5
:100DA00000020006001800600080008000C2003EC3
:100DB00000000000000000000000000000FF011023
:100DC00000100010001000100010001000100010A3
:100DD000000000000000000000000000008200820F
:100DE0000082008200820082008200820044003C77
:100DF00000000000000000000000000000010202EE
:100E000001020184008400440048004800300030A2
:100E100000000000000000000000000000010201CE
:100E2000021201320132012A014A01CC00CC0084B5
:100E300000000000000000000000000000010202AD
:100E400001840048003000300048008400020101A5
:100E5000020000000000000000000000000102028B
:100E60000184004400280010001000100010001041
:100E700000000000000000000000000000FE010073
:100E8000018000400020001000080004000200FE65
:100E9000010000000000000000F800080008000841
:100EA0000008000800080008000800080008000802
:100EB000000800F800000000000200040004000820
:100EC00000080010001000200020004000400080BA
:100ED0000080000001000000003E002000200020F3
:100EE0000020002000200020002000200020002002
:100EF0000020003E000000000020002000300050D4
:100F000000580048008800840084000201000000AE
:100F100000000000000000000000000000000000D1
:100F200000000000000000000000000000000000C1
:100F300000FF03000000001000200000000000007F
:100F400000000000000000000000000000000000A1
:100F50000000000000000000000000000000000091
:100F6000003C00400040007800440042006200DC89
:100F70000000000000000000000200020002000269
:100F8000007A004600820082008200820046003A19
:100F90000000000000000000000000000000000051
:100FA00000F800040002000200020002000400F841
:100FB0000000000000000000008000800080008031
:100FC00000B800C4008200820082008200C400BC1D
:100FD0000000000000000000000000000000000011
:100FE00000780084008200FE00020002000400F885
:100FF000000000000000000000E0011800080008E8
:1010000000FE0108000800080008000800080008A9
:1010100000000000000000000000000000000000D0
:1010200000B800C4008200820082008200C400BCBC
:1010300000800040003C00000002000200020002AC
:101040000072008A00860082008200820082008294
:101050000000000000000000001800180000000060
:10106000001E0010001000100010001000100010F2
:101070000000000000000000003000300000000010
:10108000003C002000200020002000200020002044
:1010900000200020001E00000002000200020002EA
:1010A000008200620012000E000A0032004200823C
:1010B0000000000000000000003C00200020002094
:1010C0000020002000200020002000200020002020
:1010D0000000000000000000000000000000000010
:1010E00000CD003301110111011101110111011194
:1010F00001000000000000000000000000000000EF
:101100000072008E008600820082008200820082CF
:1011100000000000000000000000000000000000CF
:1011200000380044008200820082008200440038BF
:1011300000000000000000000000000000000000AF
:10114000007A004600820082008200820046003A57
:101150000002000200020000000000000000000089
:1011600000B800C4008200820082008200C400BC7B
:1011700000800080008000000000000000000000EF
:1011800000E40094008C0004000400040004000447
:10119000000000000000000000000000000000004F
:1011A000007C00020002000C003000400042003EC3
:1011B000000000000000000000000000000800081F
:1011C00000FE00080008000800080008000800F001
:1011D000000000000000000000000000000000000F
:1011E0000042004200420042004200420062005CB5
:1011F00000000000000000000000000000000000EF
:1012000000010182008200420044002400280018EE
:1012100000000000000000000000000000000000CE
:101220000001021102320132014A014A01CC00845C
:1012300000000000000000000000000000000000AE
:1012400000020184004800300030004800840002A1
:10125000010000000000000000000000000000008D
:101260000001020201020184004C004800300030FD
:10127000001000080007000000000000000000004F
:1012800000FE01800040002000100008000400FE65
:10129000010000000000000000E00010001000103D
:1012A000001000100010000C0010001000100010C2
:1012B000001000E0000000000010001000100010FE
:1012C000001000100010001000100010001000109E
:1012D0000010001000000000001C00200020002072
:1012E00000200020002000C000200020002000205E
:1012F0000020001C000000000000000000000000B2
:1013000000000000000E023102C1010000000000D8
:10131000000000000000000011241FBECFEFD8E045
:10132000DEBFCDBF11E0A0E0B1E0E4E6F9E702C026
:1013300005900D92A630B107D9F721E0A6E0B1E003
:1013400001C01D92A53FB207E1F70E9402390C943B
:10135000A23C0C940000B0E0A0E0E1EBF9E00C94BA
:10136000FD3BD82FD62EC42EE0902D01F0902E01FB
:1013700080E00E94E63481E00E94E63482E00E9430
:10138000E6348DE30E94FC3700E011E0C0E0F80194
:10139000819191918F0190932E0180932D018091E5
:1013A000AB018C1799F08091AC018C1789F08C2DD2
:1013B0000E94FC37CF5FC33051F7F0922E01E092CC
:1013C0002D01CDB7DEB7E8E00C94193C8D2FF0CF9E
:1013D0008D2DEECFA3E0B0E0E0EFF9E00C94FC3B04
:1013E000C0902D01D0902E0189836A834B83CE015A
:1013F00001967C0110E000E0F701B1907F01BB2075
:10140000D1F0802F0E94E6348AE30E94FC37F80175
:10141000EE0FFF1FE050FF4F8081918190932E01CE
:1014200080932D018B2D0E94FC37D0922E01C0920B
:101430002D010E9402350F5F1F4F03301105E1F6A9
:101440002396E9E00C94183C85ED92E00E94D73495
:101450008EEC92E00E940B358091A9018F5F809302
:10146000A9010895809108018130C9F485E792E0CF
:101470000E94D7340E94B53480910D010E94E63459
:101480008AE30E94FC370E94023560910E01709140
:101490000F0190E080E026E54DEF0E948F35089522
:1014A000CF93C62F0E94FC3780EE90E00E94D73485
:1014B0008C2F0E94FC370E940235E2E1F1E063814B
:1014C00074818581968124E042810E948F35CF917D
:1014D0000895B0E0A0E0EFE6FAE00C94FD3B8091C7
:1014E0000B01813009F03FC0F090120110E000E0E4
:1014F000C2E1D1E088818F1509F473C00E94E634FF
:1015000080EE90E00E94D7348F2D0E94E6340115C2
:10151000110559F080EE90E00E94D734F8018081E7
:101520008F1509F460C00E94E6340E94B5346B81C7
:101530007C818D819E8124E04A810E948F35011536
:10154000110509F452C00E940235F80163817481CB
:101550008581968124E042810E948F35CDB7DEB728
:10156000E8E00C94193C09E111E0C2E1D1E08330DC
:1015700061F582E1C82E81E0D82EC9E1D1E0F60103
:1015800003811481258136816B817C818D819E81CF
:10159000E2804A810E94FE0E813009F46E01279696
:1015A000F1E0C732DF0759F7C9E1D1E082E1C8169F
:1015B00081E0D80611F0C2E1D1E08E01095F1F4F32
:1015C000C016D10611F4095F1F4F8881F801F08021
:1015D0008F1509F48FCFF1808F1509F48BCFF98027
:1015E00089CF89818BCF81819ECFCE010E944329F3
:1015F000813009F0B3CF0E9402356091DE01709115
:10160000DF018091E0019091E10128E44091DD014A
:10161000A3CFCF92DF92EF920F931F93CF93DF93DD
:101620008EE4C82E81E0D82EE6018FE0C80ED11CD2
:101630000B811C812D813E81F6016381748185813E
:101640009681EA8042810E94FE0E813009F4E60113
:10165000FCE6CF16F1E0DF0641F788810E94E63410
:101660008DEE90E00E94D73489810E94E6340E947A
:10167000B5346B817C818D819E8126E44A810E94F4
:101680008F35CE010E944A1D6C018FEFC816D80617
:1016900049F00E940235B60190E080E024E04EEF70
:1016A0000E948F358B859C85AD85BE85892B8A2BC5
:1016B0008B2B61F080E591E00E9416356B857C856F
:1016C0008D859E8521E448EF0E948F35DF91CF9173
:1016D0001F910F91EF90DF90CF900895EF920F93AD
:1016E0001F93CF93DF93EC016091B6017091B70126
:1016F0008091B8019091B90127EFE22E02E310E04A
:1017000020E030E04091BA010E94FE0E87FD10C03B
:10171000CE010E9416356091B6017091B70180919B
:10172000B8019091B90121E44091BA010E948F352E
:10173000DF91CF911F910F91EF90089540E0FC0150
:10174000608181810E94F820EEE4F1E06381748180
:101750008581968126E442810E948F350895B0E00C
:10176000A0E0E5EBFBE00C94FC3BC0900C0181E0B9
:10177000C8120DC0E0907C01F5E0DF2EA5E0BA2E86
:10178000B5E0FB2ED0E0C0E00BE711E063C0E2E083
:10179000CE121AC0F0907B0180918101E0907C0113
:1017A000D0908201F81609F487C0DE1409F414C140
:1017B000FD1003C08E1509F408C195E0D92E25E06F
:1017C000B22E35E0E32E0AC1F3E0CF1265C000E08F
:1017D00046E0202F30E0802FC0E0429FF001439F81
:1017E000F00D1124E458FE4F6C2F70E0982F8C17E9
:1017F00069F0469FD001479FB00D1124A558BE4FF8
:1018000050819C91591343C095E085E09F5F9330D0
:10181000E0F18F5F8330B8F18530D8F186E0C89F62
:10182000E0011124C558DE4F86E0089F8001112495
:1018300005581E4F829FF001839FF00D1124E5583B
:10184000FE4FE18063E0F62E75E0D72EE5E0BE2E78
:10185000CC24C394F80180810E94E63489EE90E0A4
:101860000E94D7348E2D0E94E634209709F445C09B
:10187000F3E0FF16C1F185EE90E00E94D734FE142C
:10188000C1F1888138C0082FA4CFC92FADCF9C2FBC
:10189000BDCFD0E0C0E0C8CF89EE90E00E94D73441
:1018A0000E94023580910C01805D0E94FC37CDB70B
:1018B000DEB7E9E00C94183CBE2CC5E0CC24C39400
:1018C000E2E0EF1508F491C08E2D0E94E63485EE1B
:1018D00090E00E94D7348F2D0E94E634EC2EC1E8B0
:1018E000D1E00BE711E089EE90E00E94D734FE10C2
:1018F0007EC08881FE2C0E94E63484E08B15F0F0D7
:1019000049E16D2D8B2D0E94081D8130B9F40E9494
:101910000235E2E089EB91E0EF1510F48DEB91E0F8
:101920000E94D7348FE30E94FC370E94B53461E3F4
:101930006D0D81E38B0D0E94500AC12C84EA91E069
:101940000E941635F8016281738190E080E026E5FF
:101950004DEF0E948F350E940235209709F049C053
:10196000F801848195818A3F910578F488E20E948C
:10197000FC37F8016481758190E080E020E040E070
:101980000E948F3589E20E94FC3740E0F8016081B7
:1019900081810E94AF1781E00E949F218AE991E036
:1019A0000E946E0BF1E0CF1282CF82EA91E00E949A
:1019B0001635C8010E949E0B209709F478CF0E942B
:1019C0000235CE010E949E0B72CFCF2D45E0D42E62
:1019D00055E0B52EC12C74CFD82EBF2C85E0F82E43
:1019E000CC24C394C1E8D1E0CFCEEC2EFBCF8981CB
:1019F00082CF6A817B8190E080E026E54DEF0E94F6
:101A00008F35D0CFB0E0A0E0E8E0FDE00C94FD3BE6
:101A1000C091AD01D091AB011091AC018091080152
:101A200080FF48C0F12E1C2FCD2FD12F02E09DEB5F
:101A3000C92E91E0D92E8CE592E00E940635C601B0
:101A40000E94D7348091080182FF03C08BE20E947C
:101A5000FC370E94B53445E463E482E40E94AB099C
:101A60006F2D812F0E940222892B59F00E9402358E
:101A700083E40E94FC37802F0E94FC3785E40E949B
:101A8000FC3749E16C2F8D2F0E94081D8130C9F46D
:101A90000E94B53465E482E40E94500A84E0809399
:101AA0002F0187EA91E00E946E0BCDB7DEB7E8E028
:101AB0000C94193CFC2E01E089EBC82E81E0D82E55
:101AC000BACF85EB91E00E9416356091B20170911A
:101AD000B3018091B4019091B50120E040E00E94F3
:101AE0008F356D2F8C2F0E940222EC01892BC9F2B9
:101AF00081EB91E00E9416352A813B81EC81FD81CA
:101B0000C090B201D090B301E090B401F090B50163
:101B100084E6C816D104E104F10490F0C9018E1BDB
:101B20009F0B63E070E00E94773B261B370B8AEF28
:101B3000C816D104E104F10418F09F01260F371FE5
:101B4000B90190E080E026E54DEF0E948F35A9CFE6
:101B5000FF920F931F93CF93DF938091AC0160911D
:101B6000AD019091080101E090FF04C0982F862FED
:101B7000692F02E09091070115E423E4F22E9F31D2
:101B800019F413E594E4F92E0E940222EC01892B4A
:101B900059F00E9402358F2D0E94FC37802F0E9441
:101BA000FC37812F0E94FC378091080183FD49C0DA
:101BB0008091B0019091B101892B81F08EE991E083
:101BC0000E9416356091B0017091B101072E000C92
:101BD000880B990B26E54DEF0E941B3681EC91E0B6
:101BE0000E9416356091BB017091BC018091BD01CE
:101BF0009091BE0126E44091BF010E948F358091F3
:101C0000AE019091AF01892B71F08CE491E00E94BC
:101C100016356091AE017091AF0190E080E024E054
:101C20004EEF0E948F35209761F084EA91E00E9488
:101C300016356A817B8190E080E026E54DEF0E94B9
:101C40008F35CDB7DEB7E5E00C941C3C0E94023521
:101C50008091080180FF08C08EE40E94FC3784ED6B
:101C600091E00E94D734089580E5F7CF0E940235B5
:101C70008091080182FF05C08FEC91E00E94D7346B
:101C800008958AEC91E0FACF8091080184FF2AC080
:101C90008CED91E00E94D73488ED91E00E94D7341A
:101CA0000E94260E8091080184FD0E94360E0E943B
:101CB000B5348091080148E768E786FD02C043E536
:101CC00064E487E40E94AB098091080184FD0E94CE
:101CD000A80D8091080183FF04C084E591E00E9473
:101CE0006E0B08958AE40E94FC37D6CF85EC91E014
:101CF0000E94D7340E94260E0E94360E0E94B534F0
:101D000045E463E487E40E94AB090E94A80D0895AE
:101D100080910701823201F588E592E00E94D73474
:101D20000E94B53443E461E487E40E94AB098091EA
:101D3000AE019091AF01892B71F08CEA91E00E9485
:101D400016356091AE017091AF0190E080E026E51C
:101D50004DEF0E948F35089582E592E00E94D734BE
:101D60000E94B53441E362E3DFCFCF93DF938EE48B
:101D700092E00E94D7340E94B53443E461E487E4E2
:101D80000E94AB0987E991E00E941635CBE3D1E0D0
:101D90006D817E8190E080E026E54DEF0E948F35D9
:101DA00084EA91E00E9416356B817C8190E080E0AE
:101DB00026E54DEF0E948F35DF91CF910895CF92A8
:101DC000DF92EF92FF92CF93C1E02AE0C22ED12C96
:101DD000E12CF12C6A3071058105910538F48C2FC6
:101DE000CF91FF90EF90DF90CF900895A7019601DB
:101DF0000E948B3BCA01B901CF5FECCFB0E0A0E0FD
:101E0000E4E0FFE00C94F43B4B015C01342E28012C
:101E100039011E2DAC019B01D1E09AE0C92ED12CD5
:101E2000E12CF12C2A3031054105510510F5A301B3
:101E30009201C1E08AE0C82ED12CE12CF12C2A308D
:101E4000310541055105E8F481149104A104B10460
:101E500091F1411451046104710441F1432D4D0F7E
:101E6000E12EEC0EE416F4F1ED2F4E15D9F08FEFC4
:101E70002AC0CA01B901A70196010E948B3BDF5F0E
:101E8000D1CFCA01B901A70196010E948B3BCF5F58
:101E9000D6CFAAE0B0E0A30192010E94E83B2B015B
:101EA0003C01CF5FCD17ACF3EC1794F04814590404
:101EB0006A047B04B8F081E084149504A604B70496
:101EC00008F080E08195CDB7DEB7E1E10C94103CDD
:101ED000AAE0B0E0A50194010E94E83B4B015C013F
:101EE000EF5FE2CF81E0EFCFCF92DF92EF92FF92F0
:101EF000CF93DF93C42FD22F2AE0C22ED12CE12C16
:101F0000F12CCD1307C0DF91CF91FF90EF90DF90C0
:101F1000CF900895CD1744F4A70196010E948B3B02
:101F2000B901CA01CF5FEDCFAAE0B0E09B01AC01DF
:101F30000E94E83BC150E5CFCF93CAB18AB1857FFB
:101F40008AB90E94EF3899B182E091FF80E093FD59
:101F50008160CAB990913801913031F48093370192
:101F60001092380110923A0190913A012FEF290F07
:101F7000293F18F49F5F90933A0190913701809325
:101F80003701891302C080E028C0282F292720FFAD
:101F90002695213031F5990F2DE830E002C03595B6
:101FA00027959A95E2F723708217C9F084E0909103
:101FB00039019F5F9093390190913801981729F06A
:101FC00091E09093390190933A0180933801909178
:101FD00039019430C0F210923901CF91089583E015
:101FE000E6CF81E080933801CECFB0E0A0E0EBEF08
:101FF000FFE00C94FA3B8C01D62E81E080933801EF
:10200000109239018093350162FF05C080919F01D4
:1020100080FD29C0D12C8D2D8370B82E19F081E060
:102020000E94693832E0A32EE12C42E3C42EC0E0C6
:10203000D1E0F12C9D2D9270D92E54E1952E0115F1
:10204000110529F00630110588F0055011094F9946
:102050001AC08EE190E00E94A912C0E0D11108C020
:10206000FF24F39460C010E000E0D5CFD0E0EFCFC4
:102070004F9969C0CF5FCB3109F467C08AE090E027
:102080000E94A912EBCF0E949C0F8823B1F1EE2091
:1020900079F08F1571F0BB2019F080E00E9469384B
:1020A000F09234018F2DCDB7DEB7EBE00C94163CE7
:1020B000F82EE39480913A016E2D0E94493B9CE0FA
:1020C000C90EC80E899DC001112424E096958795FC
:1020D0002A95E1F7282F893270F4869586958695A2
:1020E000283110F493E0A92EAE1007C097E0981B9A
:1020F00090933501D0CF85E0F7CFEE2021F080918D
:102100003A018C1540F682E090E00E94A912DD2091
:1021100051F0CF5FC83C39F4D13079F480E00E94AF
:102120006938C0E0D2E08091A00180FF12C08091A8
:10213000A0018E7F8093A001AECF81E00E9469381C
:10214000C0E0D1E0F0CFD0E08BCFD0E082E0F82E3D
:10215000EACFD11174CF9FCF65E088EB9BE00E945E
:10216000F50F08950F931F93CF93DF93D82F0DE8AA
:1021700012E0C3E0811103C0C0E004E912E00E9454
:102180005918C81799F00E94A337C8010E94D73484
:102190000E94B5348EE792E00E94D7340E9459180D
:1021A000C8130AC088EC90E00E94A91281E0DF9178
:1021B000CF911F910F91089560E084E690E00E9416
:1021C000F50FD13059F7882349F380E0F0CF681339
:1021D00010C080EE9FEF90932E0180932D018AE234
:1021E0000E94FC3780EE97E090932E0180932D01A2
:1021F00008950E9402350895B0E0A0E0E2E0F1E128
:102200000C94F53B682E562E5A0169010FEF080F0A
:10221000F0902B0199249A949F0C8AE30E94FC373A
:10222000D2E010E0C0E09EEF492E4F0C81E0782E06
:102230007F1881E0981202C0DF5F1C2FE12EF12C85
:10224000EE0CFF1CEA0CFB1C812C891440F181E090
:1022500098120CC060912B0180912A010E940937CD
:102260008CE3C01708F48EE30E94FC3760E090E036
:1022700080E00E94F50F813009F468C0833009F4D2
:1022800059C0843009F052C0C1113DC0091508F48D
:102290005AC0172D160D802FD2E0C82FCACF62E08A
:1022A000680D81E00E940937E1E09E1629F06C2F4D
:1022B000812F880D0E94E710D13089F0F1E05F1284
:1022C00017C0F701808191810E94D734C114D104D5
:1022D00019F0C6010E94D73480E00E943437F2E042
:1022E000EF0EF11C8394081508F0AFCF892CADCF09
:1022F000C7010E947E3CBC0190E080E020E040E00D
:102300000E948F35E3CF8FEF8C0F18131DC0112360
:10231000D9F01EEF1C0FC0CFCF5F842D810FC813E3
:1023200007C0C01728F41F5FD2E083CF823071F05E
:10233000D1E07FCF0C13F0CFD2E0091508F4D1E043
:1023400010E0C0E076CF802FD1E0A7CF0E94A33766
:1023500084EF91E00E94A9128C2FCDB7DEB7E0E1A7
:102360000C94113CA9E0B0E0E8EBF1E10C94023CE4
:10237000182F8CE591E09A83898381E08F8389E52A
:1023800091E09C838B8382E0888789E692E09E833C
:102390008D8319860E94A3378CEA92E0123011F0E7
:1023A00087EA92E00E94D73430E020E0AE014F5F30
:1023B0005F4F61E083E00E94FC108C0F9D2F911D08
:1023C000FC016781662319F0812F0E943C13299636
:1023D000E3E00C941E3CA7E2B0E0E1EFF1E10C94E5
:1023E000033C89E391E09A83898386E08B8F84E3C1
:1023F00092E09C838B8387E08C8F8EE292E09E83B9
:102400008D8388E08D8F8DE391E098878F8389E0BD
:102410008E8F8CE192E09A8789878AE08F8F80E1A6
:1024200092E09C878B878DE088A383E092E09E8773
:102430008D878EE089A38CEB92E0988B8F8781E06B
:102440008AA381EB92E09A8B898B82E08BA38CEA42
:1024500092E09C8B8B8B83E08CA387EA92E09E8B2F
:102460008D8B84E08DA38BE992E0988F8F8B85E034
:102470008EA389E692E09A8F898F1FA20E94A337CC
:1024800081EC92E00E94D73430E020E0AE014F5F53
:102490005F4F61E08DE00E94FC108C0F9D2F911D1D
:1024A000FC01838DA796E2E00C941F3CCF930E9421
:1024B000EB1181508E30D8F4E82FF0E0EC55F34C5E
:1024C0000C94CC3B0E942116C82F0E94A3378EE6A5
:1024D00092E0CC2311F088EC92E00E94D734CF91A7
:1024E00008950E94FF13F0CF82E00E94B2110E9473
:1024F000A337F1CF81E0F9CF0E948C13F8CF0E946F
:10250000A33789E391E00E94D73426E331E04BE51D
:1025100050E062E088E00E94FC1090E0880F991F74
:10252000855A9F4F0E947E3C0E948C2AE0CF0E94D9
:10253000592BDDCF0E94BB2CDACF0E946B2CD7CF5A
:102540000E943B2DD4CF0E943A34D1CF0E944A2E14
:10255000CECF0F931F934091A1019C01A4E1B0E065
:102560000E94D23B4630C1F4072F182F292F332762
:102570000F5F1F4F2F4F3F4F54E0000F111F221FBF
:10258000331F5A95D1F70617170728073907C0F4E4
:10259000601B710B820B930B1092B1001092B20072
:1025A00022E02093B0002093700023B7217F242BDA
:1025B00023BF0FB607FC33C0789440E057E01CC03F
:1025C00040E0EACFA8958B019C016F3F7105810522
:1025D000910529F020F00FEF10E020E030E0601BC3
:1025E000710B820B930B01500093B3005093B10019
:1025F0002091B10021110BC0611571058105910574
:1026000009F7411101C0F8941F910F91089523B764
:10261000216023BF889523B72E7F23BFE9CF41E0F8
:10262000CDCF1F921FB61F9211241092B1001F90A0
:102630001FBE1F901895E2EDF1E088EC90E09183C9
:1026400080838CED90E09383828384E190E0958396
:1026500084838BE286831782108611860895E2EDCB
:10266000F1E080E09191890F91E0EC3DF907D1F71D
:10267000811101C081E00895CF92DF92EF92FF9225
:102680001F93CF93DF93182F90E0E92E93E0F92E5C
:10269000623021F485EFE82E82E0F82E0E942F139D
:1026A0008093DC01D0E0C0E0C7018C0F9D1F9E012C
:1026B0002E523E4F6901123051F5F90160810E949E
:1026C000843C2196CB30D10579F71230C1F0C0910E
:1026D000DC01CC23A1F00E942F13C81781F00E94C7
:1026E000A33780E692E00E94D7348EE692E00E9403
:1026F0000B3580ED97E00E94A9120E941B13DF9119
:10270000CF911F91FF90EF90DF90CF9008950E949E
:10271000763CF6018083D5CF81E0809327010E942B
:10272000A33786E891E00E9406356091D20170914E
:10273000D30190E080E024E04FEF0E948F3582E8E3
:1027400091E00E9416356091D4017091D50190E01E
:1027500080E024E04FEF0E948F358CE691E00E94EC
:1027600016356091D80170E090E080E026E444EFF7
:102770000E948F3589E691E00E9416356091D6015E
:102780007091D70190E080E024E04EEF0E948F35F9
:1027900082E991E00E9416356091A5017091A60131
:1027A00090E080E026E54DEF0E948F3585E691E0D0
:1027B0000E9416356091A7017091A80190E080E019
:1027C00026E54DEF0E948F3580919F0182FF05C065
:1027D0000E9402358AE20E94FC378FE591E00E9458
:1027E00016356091DA01062E000C770B880B990BD9
:1027F00026E54DEF0E941B360E94AC100895A5E01F
:10280000B0E0E5E0F4E10C94F33B81E00E94B2100B
:10281000882309F414C2512C412C1B82B12CA12C09
:102820001A82D12CC12C212C912C812C312CF12CF1
:10283000E12C10E000E01D821C8262E0762E21E097
:102840002983662463940E94A33781E40E94FC37A5
:1028500080E3870D0E94FC370E94023584E07816E1
:1028600009F480C1871568F092E0791609F46AC00E
:1028700023E0721609F49FC081E0A3C031E03983E0
:10288000E2CF35E0731609F496C186E07812F4CFF2
:102890008CE691E00E9406358FE691E00E94D734E5
:1028A00040E060E081E00E94F82080915501909125
:1028B0005601A0915701B09158019D838C832091BE
:1028C0005001243F41F485369105A105B10518F466
:1028D000880E991E339441E060E082E00E94F82067
:1028E0008091640190916501A0916601B0916701AA
:1028F0008C0120915F01243F41F485369105A105AB
:10290000B10518F4880E991E339442E061E082E02C
:102910000E94F8208091730190917401A09175013B
:10292000B09176017C0120916E01243F09F0A4CF83
:1029300085369105A105B10508F09ECF880E991E38
:1029400033949ACF89E691E00E9406358FE691E0B4
:102950000E94D73440E060E081E00E94AF1780E041
:102960000E94371A9D838C838639910518F4C80E0E
:10297000D91E239440E060E082E00E94AF1780E01F
:102980000E94371A8C018639910518F4C80ED91E99
:10299000239440E061E082E00E94AF1780E00E9453
:1029A000371A7C0196E9E916F10408F065CFCE0CE0
:1029B000DF1C239461CF80E00E94B21080E024E607
:1029C000298317B818B814B815B88823E9F00E94FD
:1029D000B5342C813D81B90190E080E020E040E0F9
:1029E0000E948F350E940235B80190E080E020E01F
:1029F00040E00E948F350E940235B70190E080E0F0
:102A000020E040E00E948F353981343671F060E07B
:102A100088EE93E00E94F50F882339F0823009F0A8
:102A200009C154E6752E84E6898329812F5F2983A5
:102A3000263008F408CF739436E0371508F01ECF1F
:102A40008FE03812FAC0C4016FE070E00E94633B6F
:102A50006093D80191E099832FE022120CC0C60147
:102A60006FE070E00E94633B7093D7016093D601E2
:102A700039813F5F39838A818F3009F068C09B813B
:102A80009F3009F064C0E5E0F0E0C501BF010E949D
:102A9000633B9B01C201BF010E94633B8B0180919C
:102AA000A7019091A8016C01CC0CDD1CC80ED91EA9
:102AB000C901860F971FC81AD90AF12CE12CD90138
:102AC00020EA39E041E050E00E94E83BA70196018E
:102AD0000E948B3BCA01B9016B5F7F4F8F4F9F4FA5
:102AE000643C29E072078105910568F42AE030E032
:102AF00040E050E00E948B3B3093D3012093D20101
:102B000039813F5F3983D80120EA39E041E050E064
:102B10000E94E83BA70196010E948B3BCA01B901C4
:102B20006B5F7F4F8F4F9F4F603F2AE07207810599
:102B3000910568F42AE030E040E050E00E948B3BD1
:102B40003093D5012093D40139813F5F39830E94AE
:102B50008C1381E09981943009F080E02596E2E1C0
:102B60000C940F3C86E891E00E94D73418B867B8FF
:102B700065B864B880E00E949D179D838C8332E025
:102B800037B975B874B881E00E949D178C018C81AB
:102B90009D81800F911FA80EB91E77B880E185B97D
:102BA00084B982E00E949D177C01A80EB91E9A810B
:102BB0009D5F9A8361CE82E891E00E94D73415B878
:102BC00068B867B864B82091A7013091A8013D8327
:102BD0002C8380E00E949D172C813D81281B390B9E
:102BE0003D832C8332E038B937B984E084B9009151
:102BF000A7011091A80181E00E949D17081B190BE5
:102C00008C819D81800F911F480E591E94E098B9C8
:102C100097B920E124B9E090A701F090A80182E0E3
:102C20000E949D17E81AF90A4E0C5F1C3B813D5F1C
:102C30003B8322CE94E69983F8CE19820DCF198278
:102C400086CFB0E0A0E0E7E2F6E10C94F33B81E050
:102C50000E94B210811106C081E0CDB7DEB7E2E17B
:102C60000C940F3CD12CC12CF12CE12C10E000E095
:102C7000C1E0D1E092E0292E28E0322E34EF432E3D
:102C800036E0532E612C712C6BC0C53009F4E0C0C6
:102C900008F4D8C0C63009F077C08AE891E00E94F5
:102CA000D73424B825B880E00E94A6178C0134B828
:102CB00035B881E00E94A6177C0180E284B985B90D
:102CC000D8C08EE00E943E178EE00E943E175C0145
:102CD00082E991E00E94D7340E94B534B50190E0BA
:102CE00080E026E54DEF0E948F3580E014B815B8DE
:102CF000882309F10E94B53420E040E0B801012E9C
:102D0000000C880B990B0E941B360E94023520E0B4
:102D100040E0B7010F2C000C880B990B0E941B366A
:102D20000E94023520E040E0B6010D2C000C880B1B
:102D3000990B0E941B36D43659F060E088EE93E080
:102D40000E94F50F882321F0823009F4C4E6D4E60E
:102D5000DF5FD63028F0CF5FC73008F07DCFD1E0FD
:102D60000E94A33784E50E94FC3780E38C0F0E9409
:102D7000FC370E940235C330E1F108F086CFC13044
:102D800009F49FCFC23011F081E0B0CF8DE791E020
:102D90000E9406358FE691E00E94D7342091A7016A
:102DA0003091A801A0E7B3E00E94D23BA3019201B9
:102DB0000E94AD3B49015A0181E085B985E084B9A3
:102DC00082E00E94A6176C01C818D90881E184B975
:102DD00081E00E94A6177C01E818F90884E085B913
:102DE00084E184B980E00E94A6178C0108191909B2
:102DF000CBCF88E791E00E9406358FE691E00E94F4
:102E0000D7340091A7011091A8011695079525B810
:102E10008AE084B982E00E94A6176C01C01AD10A28
:102E200082E284B981E00E94A6177C01E01AF10ACF
:102E300035B888E284B980E00E94A617801B910B08
:102E40008C01A2CF80E00E94B21080E0D4E64ECF89
:102E50008EE891E00E94D73415B824B880E00E9433
:102E6000A6178C0134B881E00E94A6177C0180E28D
:102E700084B982E00E94A6176C0186CFCF93DF93BE
:102E8000D82FD064D0937C00CD2FC07C8091A4013A
:102E90008C1769F00E94F33880917A0080648093E7
:102EA0007A0080917A0086FDFCCFC093A40120E0D7
:102EB00030E0A90180E0E091A2018E17E8F0A09136
:102EC000A501B091A601C03C21F0A091A701B0914D
:102ED000A8010E94E83B2AE096958795779567952B
:102EE0002A95D1F72E2F30E050E040E00E948B3B36
:102EF000C901DF91CF91089590917A0090649093E9
:102F00007A0090917A0096FDFCCF609178007091E4
:102F10007900260F371F411D511D843061F42115A2
:102F200094E0390740F4C03C31F09091A301913016
:102F300011F4D06CA7CF8F5FBECFCF93C82F0E9464
:102F4000EA388C2F0E943E17CF910895CF93C82F57
:102F50000E94E8388C2F0E943E17CF910895B0E070
:102F6000A0E0E5EBF7E10C94FD3BE62E042FC0EC6E
:102F7000D1E0888369834A83C82ED12CC601875F3C
:102F80009F4F0E94763C8E83F12CC701875F9F4F35
:102F90000E94763C8F8310E0C801875F9F4F0E949C
:102FA000763C8887C6018A5F9F4F0E94763C89875E
:102FB000C7018A5F9F4F0E94763C8A87C8018A5F5B
:102FC0009F4F0E94763C8B87C6018D5F9F4F0E946A
:102FD000763C8C87C7018D5F9F4F0E94763C8D8722
:102FE000C8018D5F9F4F0E94763C8E87C60180503E
:102FF00090400E94763C8F87C701805090400E948D
:10300000763C888BC801805090400E94763C898B2A
:10301000CDB7DEB7E8E00C94193CE0ECF1E0458177
:10302000648183810E94AF170895E0ECF1E0808114
:1030300083838181848382818583089523E030E0C6
:10304000261B3109922F981B892F0895CF93DF9368
:1030500040E00E94AF1717B88091C60185B99091E2
:10306000C701892B84B98091CF010E949D17EC0183
:103070008091D0010E943E17AC012091A7013091B0
:10308000A80136952795C9014E978C179D0760F4C6
:10309000225E3F4FC217D30738F48417950720F4F8
:1030A00081E04217530708F080E014B8DF91CF9118
:1030B0000895CF9361E080E00E942618C82F62E057
:1030C00080E00E942618C80F62E081E00E94261866
:1030D0008C0FCF910895A6E0B0E0E1E7F8E10C9401
:1030E000F83B17B818B815B88FE384B980E00E9490
:1030F0003E179A83898381E00E943E179C838B83CD
:1031000082E00E943E179E838D83E12C12E008E24C
:10311000FF24F394AA24A394B12C1F5F133009F465
:1031200010E0812E912C8E2D90E0012E02C09595FD
:1031300087950A94E2F780FDF0CF812F0E943E1719
:103140006C01F401EE0FFF1F21E030E02C0F3D1F5A
:10315000E20FF31F80819181C816D90670F4D182E5
:10316000C082202F2F19330B243131051CF40B3E64
:1031700008F40C5EFF24F39408C03AE0C316D104AF
:1031800018F4083209F400E5F39483E0C816D1047A
:10319000E8F4C501082C01C0880F0A94EAF7E82A70
:1031A00027E0E21669F00F15F8F481E0809307013B
:1031B0008093080110930D01D0920F01C0920E016F
:1031C00014B817B82696EDE00C94143C90E2C9169A
:1031D00093E0D90628F777B0C4018D5F9F4F0E9416
:1031E000763C872987B9DCCFA89582E390E00E94DE
:1031F000A91293CFCF93C82FC09595B160FF11C08E
:10320000982B95B994B1982B94B963FF0CC00E9488
:10321000EE3884B18C2384B985B18C2385B9CF91E4
:1032200008959C23EECF0E94E938F3CFB0E0A0E0F0
:10323000ECE1F9E10C94FE3B613009F443C06230EB
:1032400009F449C0633009F052C00BE110E02EE1EF
:1032500030E0C9E1D0E048EC50E08417950708F46D
:1032600043C0841B950BBE010E94633BDC2ED81A21
:103270006217130609F008F49B013327220F331F4E
:10328000020F131FC8010E947E3C7C01C8010296F8
:103290000E947E3C9C01E81AF90ADE9CA001DF9C9A
:1032A000500D1124CE0196958795840F951FBE0170
:1032B0000E94633BC901860F971FCDB7DEB7E7E0D9
:1032C0000C941A3C0BE610E027E030E0C2E3D0E0BB
:1032D00048EE53E0C2CF0DE710E02CE230E0C9E148
:1032E000D0E04CE251E0B9CF90E080E0BCCF90E07C
:1032F00080E0E3CF0F931F93CF93DF93182F062F18
:1033000080910701813009F46EC0A895812F0E9439
:10331000AF1715B88091C70184B98091CC0187B9E6
:1033200088B960E18091C8010E94FA188091D001AB
:103330000E949D17EC01813D934050F061E1809126
:10334000C8010E94FA188091D0010E949D17EC01DB
:10335000C031D10508F04CC080910901811137C0FE
:103360008091C70184B915B88091CC0187B988B91B
:103370000E94EA388091C7019091C801892B84B9D5
:10338000802F0E949D178F359D4020F0BE0182E066
:103390000E94472480910901811119C08091CD01BB
:1033A00087B918B88091C6019091C801892B84B95A
:1033B00085B9812F0E949D178034964040F40E9469
:1033C0007327811104C0BE0181E00E9447248091CF
:1033D0000701882311F08A3001F50E94ED1A17B811
:1033E00018B814B815B8DF91CF911F910F910895B7
:1033F00080910901811103C0CE010E9415268091A0
:103400000901C13D93E0D90708F4A6CF811102C09C
:103410000E9411280E941522DACF8F3101F7809186
:10342000080184FFDCCF0E941523D9CF80910A01C7
:103430008823E1F09091090190FD18C091FD04C02E
:10344000909107019E3190F48093070180913B0198
:103450008093AB0180913C018093AC0180913D0150
:103460008093AD0180911101809310010895B0E027
:10347000A0E0EDE3FAE10C94F53B182F0E946B18E5
:1034800080910701813009F4A5C018B88091CD0161
:1034900087B98091C60185B984B90E94E938C2E034
:1034A000D0E0C12CD12C76018091CF01A895806C01
:1034B00080937C000E94F33880917A00806480932E
:1034C0007A0080917A0086FDFCCF04E6812C912C55
:1034D000540180917A00806480937A0080917A0010
:1034E00086FDFCCF8091780090917900880E991E1E
:1034F000A11CB11C0E94F038015059F7A091A50100
:10350000B091A601A50194010E94E83B4B015C012A
:103510008AE0B694A794979487948A95D1F72197D7
:1035200079F415B88091CD019091CC01892B87B9A0
:103530008C149D04AE04BF0450F090E080E042C0C3
:10354000C1E0D0E0750164018091D001AFCF20913E
:10355000A7013091A801A4E6B0E00E94D23B9B01F4
:10356000AC012C193D094E095F090E94E83B2B0173
:103570003C01A7019601281939094A095B09A8EEFF
:10358000B3E00E94E83B6B017C012091D4013091B3
:10359000D5012057354E50E040E0C301B2010E94F2
:1035A0008B3BC701B6010E948B3BC901113051F41E
:1035B0006091D6017091D7016217730708F0BDCFF3
:1035C000861B970B20EC2093A401CDB7DEB7E0E17A
:1035D0000C94113C90E080E0F8CFB0E0A0E0E3EF85
:1035E000FAE10C94F33BA89518B88091CD0187B906
:1035F0008091C60184B985B98091D0010E949D1740
:103600004C018091CF010E943E17EC0115B88091CA
:10361000C90184B98091CF010E949D17459750F54B
:103620008091C90185B98091CF010E949D176C01DD
:103630008091CC0187B988B915B88091C70184B948
:103640008091CF010E949D172C018091D0010E9492
:103650003E175C018091CA0184B98091D0010E941B
:103660009D173C01C03321E1D20748F432E6C3166E
:10367000D10450F0CDB7DEB7E2E10C940F3C4CE63C
:10368000C41643E1D406B0F759EAA516B10408F010
:103690006DC086E26816710468F3D60120EF3BE244
:1036A00047E050E00E94E83BC091A701D091A801FB
:1036B0009E012C193D0950E040E00E948B3B4901DE
:1036C0005A01DE01A619B70920EF3BE247E050E0BE
:1036D0000E94E83B930150E040E00E948B3BEEEDFE
:1036E000CE16E3E0DE0630F5F2E0880C991CAA1C49
:1036F000BB1CFA95D1F7CA01B901680D791D8A1D65
:103700009B1D25E030E040E050E00E948B3B2454BC
:103710003D4F4F4F5F4FAAE0B0E00E94E83B4B01A6
:103720005C0124E682169104A104B10408F490C05F
:10373000CFEFACC0FEED6F16F3E07F0670F4E2E071
:10374000220F331F441F551FEA95D1F7C501B4015D
:10375000620F731F841F951FD4CF280D391D4A1D7A
:103760005B1D5695479537952795D1CFC815D90537
:1037700008F463C04A145B0408F45FC04091A701D9
:103780005091A8014C175D0709F421972091D401AD
:103790003091D5012057354EDE01A819B9090E9494
:1037A000D23B4C1B5D0B9A0150E040E00E948B3BEA
:1037B00069017A012091D2013091D3012057354E11
:1037C000D201AA19BB090E94D23B950150E040E00A
:1037D0000E948B3BCE3DD340B0F462E0CC0CDD1CAC
:1037E000EE1CFF1C6A95D1F7CA01B9016C0D7D1D55
:1037F0008E1D9F1D25E030E040E050E00E948B3B95
:1038000049015A018ECFEEEDAE16E3E0BE0650F44C
:10381000CA01B90142E0660F771F881F991F4A95B8
:10382000D1F7E4CFC20ED31EE41EF51E46015701A8
:10383000B694A7949794879474CFFFE8AF16F2E1FB
:10384000BF0608F445C02AE0822E912CA12CB12C91
:1038500081E00E94371A6C01F12CE12CA4E1B0E068
:10386000A50194010E94E83B611571058105910550
:1038700021F464E670E080E090E0C616D706E80622
:10388000F90608F055CF46015701CEEF80E097E0EA
:10389000F92E90910B018917F8F0843609F4EACEDD
:1038A000933008F0E7CE27E0929FF0011124EE5EFE
:1038B000FE4F8091C10180838091C001818383820A
:1038C0009482A582B682C2839F5F90930B01D2CE71
:1038D000812C912C5401BCCF682E712CF69C900148
:1038E000F79C300D1124A9014E5E5E4F6A01FA016A
:1038F00020819091C001291387C021819091C1013D
:10390000291382C0E12C02E010E020E030E04C2FCF
:10391000C501B4010E94FE0E8F3F09F06AC0F60196
:10392000638174818581968102E010E020E030E0BF
:1039300042810E94FE0ED82F8F3F01F5F601428191
:103940004C1301C0D1E0F69CC001F79C900D1124EE
:103950009C012E5E3E4F6901F9016381748185816E
:103960009681EC2E950184010E94FE0EF6018D13C6
:103970003AC083809480A580B680C281140125015D
:103980005694479437942794F69CC001F79C900D69
:1039900011249C012E5E3E4F6901F90163817481FF
:1039A00085819681EC2E9501840102191309240961
:1039B000350942810E94FE0E87FD28C095018401D1
:1039C000020D131D241D351DF6016381748185814F
:1039D000968142810E94FE0E1816C4F0FAE0F09320
:1039E000070184E656CF83829482A582B682C28381
:1039F000C5CFC501B40124E130E040E050E00E94B1
:103A00008B3B19012A01C0CF8F5F43CF88EC41CF98
:103A1000EF920F931F93CF93DF93D42F10920B014C
:103A200040E00E94AF170E94ED1AC0910B01C13017
:103A3000A9F4DD23A1F00091150110911601209148
:103A40001701309118016D2F70E090E080E0E09058
:103A5000140143E00E94FE0E813009F0C0E08C2F7B
:103A6000DF91CF911F910F91EF900895813138F040
:103A7000815115BC92E094BD87BD81E0089580E03E
:103A8000089516BC81E085BDA99BFECF15BC82E0E0
:103A900085BB0895A3E0B0E0E0E5FDE10C94F33BC5
:103AA0006C01009739F42FEF3FEFC9012396E2E153
:103AB0000C940F3CFC016381748185819681A7EF92
:103AC000EA2E0AE010E020E030E042810E94FE0E83
:103AD00087FDE9CF0E946B1880910701813019F3AF
:103AE00040E0F601618180810E94AF17F091CF0123
:103AF0008091D001F06CFB83806C8A8315BC82E0DE
:103B000084BD85E387BD18B8F0937C000E94E93836
:103B10002FEF2983812C912C54018394412C512C1B
:103B20003201439490E080E052E3E52EF12CA89519
:103B3000C29758F48091CD0187B98091C60185B9AB
:103B400084B90E94FC3814B815B882E3E816F10471
:103B500058F48091CC0187B98091C70185B984B9A7
:103B60000E94FC3814B815B88091CC0187B98091B7
:103B7000C60185B984B99B8190937C00E7EDE09301
:103B80007A0080917A0086FDFCCFF7EDF0937A0001
:103B900080917A0086FDFCCF2090780030907900EB
:103BA0002A8120937C0087ED80937A0080917A00AF
:103BB00086FDFCCF97ED90937A000E94F8380E9422
:103BC000411D8091C70185B984B90E94FC3815B8A0
:103BD00014B880917A0086FDFCCFE0907800F090D8
:103BE00079008091CD0187B98091C70185B984B9E9
:103BF000EA81E0937C00F7EDF0937A0080917A00FF
:103C000086FDFCCF27ED20937A0080917A0086FD17
:103C1000FCCF00917800109179008B8180937C001B
:103C200097ED90937A0080917A0086FDFCCFE7EDC6
:103C3000E0937A000E94F8380E94411D8091C601ED
:103C400085B984B90E94FC3815B814B880917A00FF
:103C500086FDFCCF809178009091790030E020E0E3
:103C6000020D131D211D311D400E511E621E731EBB
:103C7000AC0170E060E04E0D5F1D611D711D840E92
:103C8000951EA61EB71EF981F150F983F1114FCF91
:103C90002FEF3FEF481459046A047B04F8F4809135
:103CA000D2019091D3012AE0289FD001299FB00D25
:103CB0001124A501940124193509460957090E94C8
:103CC000E83BA30192010E948B3B8091D601909129
:103CD000D7018217930730F4281B390B80EC8093AF
:103CE000A401E3CEF60163817481858196812AEF78
:103CF000E22E08EE13E020E030E042810E94FE0E4A
:103D000021E030E0181614F430E020E031952195E0
:103D10003109E4CFB0E0A0E0E0E9FEE10C94F63B2D
:103D20006C0152E0852E912C61E1E62E0E946B1809
:103D300080910701813009F4EBC018B88091CD0162
:103D400087B915B814B88091CF010E943E175C0165
:103D5000D0E0C0E021966E2D8091C6010E94FA1835
:103D60008091CF010E943E17A816B90608F0D5C071
:103D70008C010A191B09CE37D10509F0D4C00B34C8
:103D8000110530F480E009C088248394912CCECFB3
:103D900081E00C3291E01907A8F7A8958111DACFDC
:103DA000C8C021970E943E179C012A193B09A8957B
:103DB0008091CF012097A9F72017310708F09AC00A
:103DC0005801A21AB30AF12C95E6A916B10410F411
:103DD00093E0F92E0E943E174C01EE2DE0717E2EED
:103DE00009F48BC00E94DE388091CF010E943E17FB
:103DF0008815990518F4E401C81BD90BF3E0FF12EC
:103E0000ACC062E0C501800F911F0E941619252DDC
:103E1000362DDC010E94D23B4B015C01772041F042
:103E2000AAE0B0E0AC019B010E94E83B4B015C01C1
:103E300017EF88E3881689E8980681E4A806B1049C
:103E400058F0C501B40128EE33E040E050E00E9494
:103E50008B3B49015A011AEFA8EEB3E0A50194018A
:103E60000E94E83B22E434E040E050E0711004C0DE
:103E700020E134E040E050E00E948B3B8091C101A2
:103E8000F60180838091C0018183128387829086AE
:103E9000A186B28623833483458356838AE0882EA5
:103EA000912CA12CB12C2130F5E33F07FCE04F070A
:103EB000510530F5DE010E94E83B28EE33E040E09A
:103EC00050E00E948B3BCA01B901E3FC1F5F28EF61
:103ED000412F0E94740FF601638774878587968748
:103EE0003CC05C2E6D2E30E020E062CF5524539410
:103EF000612CF9CFB12CA12C6BCF0E94E33874CF89
:103F0000CA01B901A50194010E948B3B1F5FCBCF71
:103F1000F12C23C0FF24F39420C010E000E0CE3742
:103F2000D10509F42FCFC43F81E0D80709F030CF85
:103F3000A8950C32E1E01E0768F3C130D10589F67F
:103F40000531F5E01F0790F239E0E32E81E0881695
:103F5000910409F019CF22E0F22E8F2DCDB7DEB7F4
:103F6000EFE00C94123CB0E0A0E0E9EBFFE10C9430
:103F7000FB3BEC010E946B1880910701813009F432
:103F800035C115B897E097B918B88091C90184B9BF
:103F900080E480937B0084E480BF8091CF018064C3
:103FA00080937C0090937A000E94F23810928000F7
:103FB00010928100109285001092840087E286BBE7
:103FC0008091C90185B9809107018F3109F0BEC088
:103FD0008091CC018095877091E09093810087B9A2
:103FE000F12CE12C86B385FD0CC080FFFBCF96BB86
:103FF000A8952FEFE21AF20A20EAE2162FE0F20665
:1040000089F71092810090E296BBC0908600D09014
:10401000870014B82091840030918500C216D30621
:1040200038F480FF05C081E086BB8FEFE81AF80AFC
:1040300087E980937A008091CF010E943E175C014E
:1040400015B88091C90184B981E020EAE2162FE019
:10405000F20608F076C0C601B0E0A0E06701F12CDE
:10406000E12C7601DD24CC24C82AD92AEA2AFB2AAD
:1040700083E0C816D104E104F10408F46AC022E028
:10408000C21AD108E108F10888E3C81689E8D80601
:1040900081E4E806F10408F45CC0C701B60128EE2B
:1040A00033E040E050E00E948B3B69017A0117EF5A
:1040B0002091DA018091A5019091A60161E0820F23
:1040C000911D27FD9A950E941619DC01A701960102
:1040D0000E94E83B20ED37E040E050E00E948B3B3F
:1040E00069017A01143F99F48091D80190E0B0E021
:1040F000A0E0C12CD12C7601281739074A075B07AD
:1041000030F069017A01C81AD90AEA0AFB0A8091DB
:10411000C10188838091C00189831A832F833887E6
:1041200049875A87CB82DC82ED82FE82143F99F464
:1041300020EAC21626E8D20621E0E206F104A0F445
:1041400083E0CDB7DEB7EAE00C94173C8091CD0157
:1041500043CF14EFADCF173F99F781E2C8168EE435
:10416000D806E104F10460F78091CF010E943E1768
:10417000853D9340C8F714B81092A3018091CF01F8
:104180000E943E17EC0181E08093A3018091CF0152
:104190000E943E17AC018091C90184B9DE01A41BC5
:1041A000B50BC091A501D091A601CD010496099748
:1041B00088F09E010E94E13B9A0150E040E00E949D
:1041C000AD3B8091D901820F8093D901CC0DD11DD7
:1041D000C7FCDA9585010C1B1D0BC801C1968336FF
:1041E000910508F0ADCF0093DA01AACF80E0A9CF06
:1041F000B0E0A0E0EEEFF0E20C94FA3BF82E962E41
:10420000C42FC42ED12C2FE0429FF0011124E25B79
:10421000FE4F1082118284EF8283178210861186EE
:1042200012861382148215821682138614861586CE
:10423000168680910701813009F461C08A3009F443
:1042400063C0692D8F2D0E940222009709F062C081
:104250002FE0C29FE0011124C25BDE4F40E0692DD8
:104260008F2D0E94AF17CE010E948A1E823019F452
:10427000CE010E94B31F90910701943188F48FE022
:104280008C9DF0018D9DF00D1124E25BFE4F82812B
:104290009A3009F047C08A3F1CF08BE080930701F9
:1042A0000E946B1817B818B814B815B828C0F501D3
:1042B00080818F1103C09181991531F0891114C04B
:1042C000F50181818F1110C0F501638174818581B1
:1042D0009681E12C0AE010E020E030E042810E946B
:1042E000FE0E8F3F09F4D3E6DF5FF7E0AF0EB11C9F
:1042F00080910B01D817D8F2D43609F4A2CFCDB7EC
:10430000DEB7EBE00C94163C82E1A82E81E0B82EDB
:10431000D0E0EECFFC01828193818C3D954008F086
:1043200097CFEDCF853F0CF0B8CF83819481A581E5
:10433000B6810597A105B10508F0AFCFB1CFCF92F7
:10434000DF92EF92FF92CF93C82F15B88091C701EB
:1043500084B98091CC0187B988B98091D0010E943D
:104360009D1784309105F0F1C090D201D090D30117
:10437000F12CE12C893725E0920768F1C13059F51D
:1043800014B88091CC019091CD01892B87B980918F
:10439000D0010E943E17C9EF17B818B814B815B865
:1043A000DC0120EA36E841E050E00E94E83BA7014A
:1043B00096010E948B3B2093B6013093B701409346
:1043C000B8015093B901C093BA01CF91FF90EF901B
:1043D000DF90CF90089520E9C20E2AE1D21EE11CA1
:1043E000F11CD9CF8091CA0184B98091D0010E947B
:1043F0009D1720EFC22E2BE2D22E27E0E22EF12CC9
:10440000C8EFCACF90910C01EBE7F1E0911104C025
:10441000F0E0E0E0CF0108952081281303C021815E
:104420002617C1F391503696F1CFB0E0A0E0EBE152
:10443000F2E20C94F53BA8950E946B18809107015D
:10444000813009F497C018B88091CD0187B9809167
:10445000CF010E943E172C018091C90184B985B912
:1044600061E18091C8010E94FA188091CF010E94F9
:104470009D173C018091C60184B985B961E18091A5
:10448000C8010E94FA188091CF010E949D175C011B
:104490008091D0010E943E177C010E946B18809190
:1044A0000701813009F466C018B88091CD0187B941
:1044B0008091CF010E943E178C0117B88091CC01EA
:1044C00088B987B915B88091CA0184B960E1809133
:1044D000C8010E94FA188091CF010E949D17EC013B
:1044E0008091D0010E943E17C817D90708F447C031
:1044F000C81BD90B6501CE18DF088091C70184B9AC
:1045000060E18091C8010E94FA188091CF010E9459
:104510009D174C018091D0010E943E179401281BE9
:10452000390B17B82C153D0568F57601E80EF91E14
:10453000E818F9088201E30129EEE21623E0F20609
:10454000C8F4C630D105B0F00C171D0708F50330CC
:10455000110538F0CE01801B910B8C01043611053A
:1045600048F0C832D105B8F0C60187599109893899
:104570009141E0F1CDB7DEB7E0E10C94113CD0E021
:10458000C0E0B8CFEA18FB08E20EF31E6901D4CFF1
:104590000C1B1D0BE3CF15B88091C70184B9809126
:1045A000CC0188B987B98091D0010E949D178C01F8
:1045B0008091C60184B98091CD0188B987B9809175
:1045C000CF010E949D179C01C80164E170E00E9428
:1045D000633BC801861B970B8217930728F6060FCB
:1045E000171F2017310708F0BFCFC4CF80910701F4
:1045F000882311F08A3019F484E1809307018091B7
:104600000C0196E0899FF0011124E558FE4F90912E
:10461000C00190839091C1019183D382C282D583DE
:10462000C4838F5F80930C01A5CF6091AC01809112
:10463000AD019091080190FF03C0962F682F892F3C
:104640000E940222892B49F0109207011092080162
:10465000809109018E7F809309010895B0E0A0E068
:10466000E4E3F3E20C94FA3B282F2170922E109190
:10467000C601C091CC0100E180FD05C01091C701C9
:10468000C091CD0101E1C7708091D1018064809318
:104690007C00DAE0C12CD12C7601AA24AA9483E014
:1046A000B82EA895602F8091C8010E94FA188091B9
:1046B000CB01812B84B99920B1F186B18C23E9F724
:1046C00014B980917A00806480937A0080917A0096
:1046D00086FDFCCF8091780090917900992039F186
:1046E000C80ED91EE11CF11CD150D9F6C701B60184
:1046F0002AE030E040E050E00E94AD3BA091A701ED
:10470000B091A8010E94E83B20E034E040E050E096
:104710000E94AD3B3093B1012093B001CDB7DEB71D
:10472000EBE00C94163C86B18C23E9F3C9CF9501DC
:10473000281B390BC21AD30AE108F108D5CFB0E023
:10474000A0E0E5EAF3E20C94FD3B182F9091C8013C
:10475000813009F06BC08091CC0187B988B9809114
:10476000C701892B84B995B98091D0010E949D170A
:104770007C01C091A701D091A8018091D1010E9434
:104780003E17C81BD90BC7018C1B9D0BBE010E9495
:10479000633B6B01F12CE12C609708F040C08091E5
:1047A000CB01113009F05BC09091C701982B94B9EF
:1047B00085B98091D0010E949D178C01C091A701FD
:1047C000D091A8018091D1010E943E17FE01E81B03
:1047D000F90BC091D201D091D301309711F4E1E0EF
:1047E000F0E0D80120EF3BE247E050E00E94E83BD8
:1047F0009F0150E040E00E948B3BAAE0B0E00E94A5
:10480000E83BC057D54E9E0150E040E00E948B3BF4
:10481000C216D306E406F50610F469017A01C70151
:10482000B601CDB7DEB7E8E00C94193C18B880911A
:10483000CD0187B98091C60185B9892B84B9E090F3
:10484000A701F090A8018091CF010E949D17E81A5E
:10485000F90A8091D1010E943E17EC0194CF90910A
:10486000C601892B84B90091A7011091A8018091FC
:10487000CF010E949D17081B190B8091D1010E9446
:104880003E17FC01C091D401D091D501A6CF8F92E3
:104890009F92AF92BF92EF92FF920F931F93CF938D
:1048A000DF93F82E5B010E9415189091CB0121E057
:1048B000F212E6C08091C601892B84B985B90E94A5
:1048C000E538C091A701D091A8018091CF010E9445
:1048D0003E17C81BD90B0091A7011091A801809128
:1048E000D1010E943E17F801E81BF90B11E088E4A2
:1048F0009DE02DEF39E02E173F0708F0F8C08091BA
:1049000007018E3109F0D0C0809109018160809348
:10491000090180910801982F9F2119F484608093E8
:104920000801AC16BD0610F4CA19DB09DE0120EF40
:104930003BE247E050E00E94E83B9F0150E040E04E
:104940000E948B3BAAE0B0E00E94E83B21E0F2121B
:10495000B1C02091D4013091D5012057354E50E09F
:1049600040E00E948B3B8901D42FC52F8F2D0E94E0
:104970009F234801AD2EBC2E86169706A806B906C1
:1049800010F44B015C0181E040E0F81298C06091A6
:10499000C2018091C1010E94F8200E940D188091EF
:1049A000080182FF25C00091510110915201209110
:1049B0005301309154016091BB017091BC01809111
:1049C000BD019091BE01E09050014091BF010E9455
:1049D000FE0E813009F478C01092B2011092B3013A
:1049E0001092B4011092B5018F2D8460809308015C
:1049F0008091B2019091B301A091B401B091B50141
:104A000088159905AA05BB0580F580E00E949F21C5
:104A10008092B2019092B301A092B401B092B5011C
:104A20008091510190915201A0915301B091540194
:104A30008093BB019093BC01A093BD01B093BE01D4
:104A4000809150018093BF018091C2018093AB019E
:104A500021E0F2123DC08091C0018093AC018091B1
:104A6000C1018093AD0110921001DF91CF911F9190
:104A70000F91FF90EF90BF90AF909F908F9008950F
:104A80008091C701892B84B98091D0010E949D1724
:104A9000EC018091D1010E943E17FC0180ED97E06E
:104AA00021ED33E012E027CF8EE180930701F092F1
:104AB000080137CF2091D2013091D3014ECF6091C0
:104AC000C0018091C20167CF812C912C540190CFFD
:104AD0008091C0019091C1019827892798279093D0
:104AE000AD018093AC0181E080931001BECF21E63F
:104AF000A216B10408F0B9CF8C179D0708F0B5CF06
:104B00008091CF010E943E175C018091D0010E94EC
:104B10003E17A81AB90A8AEFA816B10408F06BC0AC
:104B20002FE120930701212F2461209308011130E8
:104B300009F056C0A091D401B091D501A057B54E4F
:104B400022E0209310014AE04A9D90014B9D300DD8
:104B500011240E94D23B9E0150E040E00E948B3B1A
:104B60008091D6019091D7018217930708F040C039
:104B7000281B390B3093AF012093AE01812F0E9487
:104B80002E23809109018160809309018091C201E7
:104B90008093AB011130E9F59091C0019093AC0185
:104BA0009091C1019093AD0140E06091AD010E94F0
:104BB000F8208091510190915201A0915301B09140
:104BC00054018093BB019093BC01A093BD01B093AD
:104BD000BE01809150018093BF010E940D1845CF06
:104BE000A091D201B091D301A057B54E23E0A9CF37
:104BF00030E020E0BFCF80E280930701812F846006
:104C00008093080188E0113009F089E08093100159
:104C1000B5CF2091C0013091C1013227232732271F
:104C20003093AD012093AC01BFCFB0E0A0E0EBE149
:104C3000F6E20C94FD3B8B3E914008F07EC098E27A
:104C4000E92EF12C8091C7019091CB01892B84B979
:104C50008091D0010E94A617EC018091CB0185B90B
:104C60008091D0010E94A6178C010C1B1D0BCE0D4C
:104C7000DF1DC817D90708F06FC08091C80184B93B
:104C800085B918B88091CD0187B98091D1010E9472
:104C9000A6176C0117B88091CD0188B987B98091AA
:104CA000C6019091CB01892B84B915B88091CF01B1
:104CB0000E94A617EC018091CB0185B98091CF01AC
:104CC0000E94A6178C1B9D0BEC0118B88091CD019A
:104CD00087B98091C6019091CB01892B84B985B9A0
:104CE0008091D1010E94A61788349F4058F189E134
:104CF0008093080184E0809310018FE18093070185
:104D0000809109018160809309014091C201409323
:104D1000AB018091C0019091C10198278927982704
:104D20003091C1012091C001C017D10708F476C0AD
:104D30009093AD018093AC0175C088EEE82EFF24FE
:104D4000F39480CF8CEBC81682E0D80628F089E275
:104D50008093080186E0CFCF18B88091CD0187B944
:104D60008091C6019091CB01892B84B985B980913E
:104D7000CF010E94A617EC018091C60185B98091F0
:104D8000CF010E94A6178E01081B190BE80EF91E11
:104D9000EC16FD0608F097C08091C80184B915B8DB
:104DA0008091CD0187B988B98091D1010E94A61761
:104DB0007C0118B88091CC0187B98091C70190918E
:104DC000CB01892B84B985B98091D0010E94A617A7
:104DD000EC018091C70185B98091D0010E94A6178E
:104DE000C81BD90B15B88091CC0188B987B98091BF
:104DF000D1010E94A617813D934028F48AE1809357
:104E0000080185E078CF3DECE31630E1F30608F0C9
:104E10005AC08AE28093080187E06DCF2093AC01ED
:104E20003093AD01C80162E370E00E94633BC801AA
:104E3000861B970BC817D90750F0600F711F6C17AE
:104E40007D0728F0809108018064809308016091BB
:104E5000AD018091AC010E94AF178091CD0190917E
:104E6000CE01892B87B99091C60194B92091080190
:104E700020FF2EC018B895B9C091A701D091A80104
:104E80008091CF010E94A6179E01281B390BC901F2
:104E90004091D4015091D5014057554E9C01A0E15D
:104EA000B7E20E94D23B9A0150E040E00E948B3B67
:104EB0002093B6013093B7014093B8015093B901E4
:104EC0008AEF8093BA01CDB7DEB7E8E00C94193CC5
:104ED00088B915B88091CF010E94A6174091D201E0
:104EE0005091D301D9CFEF92FF920F931F93CF939D
:104EF000DF938091D1010E943E178C018091D001F7
:104F00000E943E177C0160E18091C8010E94FA185E
:104F10008091CF010E949D17EC0115B80E94EA38DC
:104F20008091C60185B98091CF010E949D17C03440
:104F3000D64030F080E0CDB7DEB7E6E00C941B3C05
:104F400081339141B8F314B815B88091CD0188B977
:104F50000E94EA388091C60184B98091CF010E94F5
:104F60009D17853F910530F760E18091C8010E944F
:104F7000FA188091CF010E949D17EC01CD3D82E08F
:104F8000D807F8F482E280930701809109018160DB
:104F9000809309018AE0809310018091C20180937F
:104FA000AB018091C0018093AC018091C1018093DD
:104FB000AD010E191F091093AF010093AE0181E0FE
:104FC000BACF8091C60185B90E94EA3815B88091A0
:104FD000CF010E949D17853F910508F0ABCF8091CE
:104FE0000701813229F480910901816080930901D0
:104FF00081E2809307018BE0809310018091B201E0
:105000009091B3018C179D07D0F6CE01B0E0A0E0DF
:105010008093B2019093B301A093B401B093B50112
:10502000BCCFEF92FF920F931F93CF93DF938091AA
:10503000CF010E943E17EC018091D0010E943E17E3
:105040007C018091D1010E943E178C0117B880919C
:10505000CC0188B98091CB0185B99091C701892B8A
:1050600084B982E390E00E94A9128091CC0187B9B3
:105070008091D0010E943E170A97F8F483E2809352
:105080000A018CE0809311018091C20180933B0161
:105090008091C00180933C018091C10180933D01CA
:1050A000CE018E199F0990933F0180933E01C01B52
:1050B000D10BD0934101C0934001CDB7DEB7E6E0FC
:1050C0000C941B3CB0E0A0E0E8E6F8E20C94FD3B59
:1050D000EC01162F892B39F410E0812FCDB7DEB704
:1050E000E8E00C94193C0E946B1880910701813014
:1050F00099F315B818B88091CC01012F017010FFF9
:10510000A9C09091C70194B987B987E080937A00CC
:1051100080E480937B008091D001806C80937C0040
:1051200084E480BF0E94EE38A8951092800010920F
:105130008100109285001092840087E286BB9091D6
:10514000CC01612F647012FF8AC098B984E100001D
:105150008150E9F78091810081608093810090E027
:1051600080E021E046B345FD81C040FFFBCF26BB78
:10517000019680359105B1F710E01092810020E290
:1051800026BBC0908600D09087005091C7017091D7
:10519000C601572B54B917B8E0918400F0918500EF
:1051A000CE16DF0628F440FF03C041E046BB01965F
:1051B00047E940937A00112309F48ECFF12CE12CBA
:1051C000B0E0A0E0AC0133272227C22AD32AE42A88
:1051D000F52A84E0662331F02FE4C20ED11CE11CD5
:1051E000F11C83E0002309F443C08D5F90E0B0E040
:1051F000A0E020E030E0A9018C159D05AE05BF05BB
:1052000030F4A7019601281B390B4A0B5B0BA4EF66
:10521000B1E00E94E83B6B017C0125E0C20ED11C8D
:10522000E11CF11CC701B6012AE030E040E050E08B
:105230000E948B3B288339834A835B830023D1F010
:1052400084EDC81680E3D806E104F10408F045CFE8
:1052500012E043CF14B89091CD01892B55CF8091A6
:10526000810081608093810098B979CF13E085CF68
:105270008F5FBCCF22EFC21623E0D206E104F10417
:1052800008F02BCFE5CFA4E0B0E0E9E4F9E20C941C
:10529000F53B6C011092DD011092DE011092DF01EE
:1052A0001092E0011092E101009729F480E0249629
:1052B000E0E10C94113CFC0163817481858196814D
:1052C000E12C00ED17E020E030E042810E94FE0E6C
:1052D00087FFECCF40E0F601618180810E94AF172B
:1052E00065E0CE0101960E946228833009F0CAC0B1
:1052F00089819A81AB81BC8115E089389341A105F0
:10530000B10500F561E0CE0101960E94622811E02E
:105310008230A9F4F6016381748185819681E12C44
:1053200008E210E020E030E042810E94FE0E87FF9C
:10533000BDCF62E0CE0101960E94622812E0833068
:1053400009F0B4CFF60163817481858196812FEFD6
:1053500042810E94740F4B018091D6019091D70138
:105360000596E091D201F091D3012091D4013091C2
:10537000D5012E0F3F1F6AE070E00E94633B690178
:10538000C60ED71EC80CD91C10FF80C020E7C21A59
:1053900025EED20AE057F54E89819A81AB81BC8116
:1053A000803727E19207A105B10508F47BC0843D51
:1053B0009043A105B10508F478C087E390E04091DF
:1053C000DA012091A5013091A601240F311D47FD7E
:1053D0003A95092E000CAA0BBB0BBC01CD01620F44
:1053E000731F811D911DF12CE12CA70196010E94D4
:1053F000393B9F0150E040E00E948B3BCA01B9015C
:1054000025E030E040E050E00E948B3B63E0C901C2
:105410000E9416195C0129813A814B815C8117EF4A
:105420006AE0462E512C612C712C213A86E838070F
:1054300081E04807510508F041C0D5010E94E83BD2
:105440002AE0822E912CA12CB12C613AE6E87E074D
:10545000E1E08E079105F0F5A70196010E94393B26
:105460001093DD0120E137E240E050E00E948B3BE9
:105470002093DE013093DF014093E0015093E1017E
:1054800081E015CF882309F43DCF10CF89819A811F
:105490008C3D25E0920760F08838934160F08AEBFC
:1054A0009FEF8DCF80E590E08ACF8DE290E087CFAF
:1054B0008AE090E084CF8CEE9FEF81CFCA01B901E2
:1054C0006B5F7F4F8F4F9F4FA30192010E948B3BD9
:1054D0001F5FABCF6B5F7F4F8F4F9F4FA501940135
:1054E0000E948B3BCA01B9011F5FAFCFCF93C82F7A
:1054F0000E94233560E08BE2C11102C063E78DE2B8
:105500004DE20E94EA0960E088E893E10E94F50F0D
:105510000E942335CF9108958F929F92AF92BF92B0
:10552000CF92DF92EF92FF92CF93DF936C0180E0F6
:105530000E94B2100E94A33789E391E00E940635D1
:10554000F12CE12C28E440E0C701B6010E948F3520
:105550008AE70E94FC3780E00E94762A18B885E02E
:1055600087B984E084B915B860E876E988E990E005
:10557000A70196010E948B3B69017A0181E8C81658
:1055800084E8D8068EE1E806F10408F46DC0CD2C5D
:10559000DE2CEF2CFF2484E01092810093E29093A4
:1055A000800090E190938100109285001092840019
:1055B000D0928900C0928800960136952795309345
:1055C0008B0020938A00806180938100C2E3D1E048
:1055D00024E6822E912CA12CB12C0E9423356C2F15
:1055E00070E090E080E025E240E00E948F35D3300B
:1055F00020F484EF91E00E94A91260E090E080E046
:105600000E94F50FD82F813009F040C082E390E06E
:105610000E94A91260E088EC90E00E94F50F8111D1
:1056200046C0C03608F4CB5FAC2FB0E0A7019601AE
:105630000E94E83BA50194010E948B3B30938B00B4
:1056400020938A00D111C9CF10928100109280005E
:1056500014B8DF91CF91FF90EF90DF90CF90BF9083
:10566000AF909F908F90089581E8C8168EE3D8067A
:10567000E104F10448F036E0F694E794D794C79437
:105680003A95D1F783E088CF81E086CF833021F44B
:10569000C43650F6CF5FC8CF843021F4CC2321F23A
:1056A000C150C2CFC53008F4BFCFC550BDCFD0E088
:1056B000BBCFB0E0A0E0EFE5FBE20C94F53B80E06F
:1056C0000E94B2100E94A33784E392E00E94063544
:1056D00080E00E94762A18B885E087B984E084B912
:1056E00015B883E38093800088E180938100CFE147
:1056F000DEE401E010E0DD24D394F12CE8E1EE2EAD
:10570000812CF4E99F2EF5E3AF2EF7E7BF2ED7FFEC
:1057100067C083E0772473948F1508F06BC0E09224
:1057200081001092850010928400CE019695879595
:1057300090938B0080938A00D0938900C093880057
:105740008D2D886180938100980150E040E0C50173
:10575000B4010E948B3BF80162E0C62EE830F105EF
:1057600008F07AC02E019FEF491A590A712C612C5A
:10577000CA01B901A30192010E948B3B29013A01A0
:105780000E94233528E44C2DC301B2010E943F350D
:105790008AE70E94FC3760E090E080E00E94F50F0D
:1057A00040913501242F30E02230310548F0449FEC
:1057B000A0011124449F9001459F300D300D11240C
:1057C000833009F056C0CE01821B930BC817D9074E
:1057D00020F0EC01039708F09ACFC3E0D0E097CF18
:1057E000CF3F9FE0D90708F09ACFFF2009F497CF69
:1057F00077247A947F0C7F1409F491CFC72CD12C95
:10580000C601880F991F8F5E9F4F0E947E3C582EC5
:10581000692EC601845F9F4F0E94763CD82EF714F4
:1058200068F4852D962DB8010E94633BCE010E943D
:10583000633BEB01F72C052D162D71CFC801652DAB
:10584000762D0E94633BCE01869FE001879FD00D9D
:10585000969FD00D1124EECFAAE0B0E00E94E83B65
:105860009B01AC01C39483E0F695E7958A95E1F737
:1058700075CF843069F42C0F3D1F2C173D0728F09D
:10588000E9012F3F3F4F09F042CFCEEFDFEF3FCF8F
:105890008130B1F482E390E00E94A91260E088ECCC
:1058A00090E00E94F50F882309F431CF1092810017
:1058B0001092800014B8CDB7DEB7E0E10C94113C33
:1058C000823009F024CFCFE1DEE401E010E0DD24F6
:1058D000D394F12C1CCF10920C010E94A3378DE3BE
:1058E00091E00E94D73481E00E94762A8DE20E94E6
:1058F000FC3762E090E080E00E94F50F813059F4BF
:1059000082E390E00E94A91260E088EC90E00E949F
:10591000F50F81112FC00E9423358AEE92E00E947C
:10592000D73440E062E080E00E94F8200E942335F6
:10593000809107018B30D1F6609151017091520135
:10594000809153019091540126E4409150010E94AE
:105950008F350E9402358EE491E00E944A1D8F3FF0
:10596000980721F2BC0190E080E024E04EEF0E9415
:105970008F35BFCF0895AF92BF92CF92DF92FF9243
:105980000F931F93CF93DF930E94A3378EE292E091
:105990000E94D7340E94B5348DE20E94FC370FEF8D
:1059A0001FEFF12CD1E08AE0C82ED12C8EE190E0DF
:1059B0000E94A912F394C0E04F9B2BC0CC23B1F3FB
:1059C000D23009F04FC0D1E088E08F1508F0D0E068
:1059D0000E9423350F3F100709F449C0B80190E039
:1059E00080E026E54FEF0E948F350E9402358AE263
:1059F00092E00E94D734D1110AC0DF91CF911F915C
:105A00000F91FF90DF90CF90BF90AF900895F12C51
:105A1000CDCF83E00E943E17B6010E94633B5B013D
:105A20008C2F877061F0CA30C0F48EE190E00E9444
:105A3000A912CF5FC13F08F4BFCFC9ECBDCF0E9410
:105A40002335B50190E080E026E54FEF0E948F35C9
:105A5000C111E9CF0FEF1FEFE8CFA016B10628F76D
:105A60008501E3CFCB3008F0B3CFD2E0B1CF8DE2E8
:105A70000E94FC37C0CFB0E0A0E0E1E4FDE20C946E
:105A8000F33B0E94A3378CE192E00E94D73414BC10
:105A900081E085BB80936E001092800082E086BB1F
:105AA00080936F000AE010E0C1E036E0332E4AE058
:105AB000242E5AE0A52EB12C9AB054980E94EF38AB
:105AC000CC2ED12CC601880F991F8F5E9F4F0E944C
:105AD0007E3C7C01C601845F9F4F0E94763C882EED
